{
  "contractName": "EtherGoods",
  "abi": [
    {
      "constant": false,
      "inputs": [
        {
          "name": "typeId",
          "type": "uint256"
        }
      ],
      "name": "claimGoodTestB",
      "outputs": [],
      "payable": true,
      "stateMutability": "payable",
      "type": "function"
    },
    {
      "constant": true,
      "inputs": [],
      "name": "name",
      "outputs": [
        {
          "name": "",
          "type": "string"
        }
      ],
      "payable": false,
      "stateMutability": "view",
      "type": "function"
    },
    {
      "constant": false,
      "inputs": [
        {
          "name": "enabled",
          "type": "bool"
        },
        {
          "name": "typeId",
          "type": "uint256"
        }
      ],
      "name": "setClaimsEnabled",
      "outputs": [],
      "payable": false,
      "stateMutability": "nonpayable",
      "type": "function"
    },
    {
      "constant": false,
      "inputs": [],
      "name": "claimGoodTestA",
      "outputs": [],
      "payable": true,
      "stateMutability": "payable",
      "type": "function"
    },
    {
      "constant": true,
      "inputs": [
        {
          "name": "",
          "type": "uint256"
        }
      ],
      "name": "goodTypes",
      "outputs": [
        {
          "name": "typeId",
          "type": "uint256"
        },
        {
          "name": "creator",
          "type": "address"
        },
        {
          "name": "totalSupply",
          "type": "uint256"
        },
        {
          "name": "nextSupplyIndexToSell",
          "type": "uint256"
        },
        {
          "name": "claimPrice",
          "type": "uint256"
        },
        {
          "name": "name",
          "type": "bytes32"
        },
        {
          "name": "description",
          "type": "string"
        },
        {
          "name": "initialized",
          "type": "bool"
        },
        {
          "name": "claimsEnabled",
          "type": "bool"
        }
      ],
      "payable": false,
      "stateMutability": "view",
      "type": "function"
    },
    {
      "constant": false,
      "inputs": [
        {
          "name": "typeId",
          "type": "uint256"
        }
      ],
      "name": "claimGood",
      "outputs": [],
      "payable": true,
      "stateMutability": "payable",
      "type": "function"
    },
    {
      "constant": true,
      "inputs": [],
      "name": "goods",
      "outputs": [
        {
          "name": "",
          "type": "address"
        }
      ],
      "payable": false,
      "stateMutability": "view",
      "type": "function"
    },
    {
      "constant": false,
      "inputs": [
        {
          "name": "goodTypeName",
          "type": "bytes32"
        },
        {
          "name": "totalSupply",
          "type": "uint256"
        },
        {
          "name": "claimPrice",
          "type": "uint256"
        }
      ],
      "name": "registerNewGoodType",
      "outputs": [],
      "payable": false,
      "stateMutability": "nonpayable",
      "type": "function"
    },
    {
      "constant": false,
      "inputs": [],
      "name": "withdrawPendingBalance",
      "outputs": [],
      "payable": false,
      "stateMutability": "nonpayable",
      "type": "function"
    },
    {
      "constant": false,
      "inputs": [],
      "name": "EthergoodsMarket",
      "outputs": [],
      "payable": true,
      "stateMutability": "payable",
      "type": "function"
    },
    {
      "constant": false,
      "inputs": [
        {
          "name": "claimPrice",
          "type": "uint256"
        },
        {
          "name": "typeId",
          "type": "uint256"
        }
      ],
      "name": "setClaimsPrice",
      "outputs": [],
      "payable": false,
      "stateMutability": "nonpayable",
      "type": "function"
    },
    {
      "constant": false,
      "inputs": [
        {
          "name": "description",
          "type": "string"
        },
        {
          "name": "typeId",
          "type": "uint256"
        }
      ],
      "name": "setGoodTypeDescription",
      "outputs": [],
      "payable": false,
      "stateMutability": "nonpayable",
      "type": "function"
    },
    {
      "constant": true,
      "inputs": [],
      "name": "version",
      "outputs": [
        {
          "name": "",
          "type": "string"
        }
      ],
      "payable": false,
      "stateMutability": "view",
      "type": "function"
    },
    {
      "constant": false,
      "inputs": [],
      "name": "lockMarketContractAddress",
      "outputs": [],
      "payable": false,
      "stateMutability": "nonpayable",
      "type": "function"
    },
    {
      "constant": true,
      "inputs": [],
      "name": "hasMarketContract",
      "outputs": [
        {
          "name": "",
          "type": "bool"
        }
      ],
      "payable": false,
      "stateMutability": "view",
      "type": "function"
    },
    {
      "constant": false,
      "inputs": [],
      "name": "lockTokenContractAddress",
      "outputs": [],
      "payable": false,
      "stateMutability": "nonpayable",
      "type": "function"
    },
    {
      "constant": false,
      "inputs": [
        {
          "name": "typeId",
          "type": "uint256"
        }
      ],
      "name": "claimGoodTestC",
      "outputs": [],
      "payable": true,
      "stateMutability": "payable",
      "type": "function"
    },
    {
      "constant": false,
      "inputs": [
        {
          "name": "to",
          "type": "address"
        },
        {
          "name": "typeId",
          "type": "uint256"
        }
      ],
      "name": "transferRegistration",
      "outputs": [],
      "payable": false,
      "stateMutability": "nonpayable",
      "type": "function"
    },
    {
      "constant": true,
      "inputs": [],
      "name": "owner",
      "outputs": [
        {
          "name": "",
          "type": "address"
        }
      ],
      "payable": false,
      "stateMutability": "view",
      "type": "function"
    },
    {
      "constant": false,
      "inputs": [
        {
          "name": "typeId",
          "type": "uint256"
        }
      ],
      "name": "claimGoodTestD",
      "outputs": [],
      "payable": true,
      "stateMutability": "payable",
      "type": "function"
    },
    {
      "constant": true,
      "inputs": [],
      "name": "goodTokenMarket",
      "outputs": [
        {
          "name": "",
          "type": "address"
        }
      ],
      "payable": false,
      "stateMutability": "view",
      "type": "function"
    },
    {
      "constant": false,
      "inputs": [
        {
          "name": "_address",
          "type": "address"
        }
      ],
      "name": "setTokenContractAddress",
      "outputs": [],
      "payable": false,
      "stateMutability": "nonpayable",
      "type": "function"
    },
    {
      "constant": false,
      "inputs": [
        {
          "name": "_address",
          "type": "address"
        }
      ],
      "name": "setMarketContractAddress",
      "outputs": [],
      "payable": false,
      "stateMutability": "nonpayable",
      "type": "function"
    },
    {
      "constant": true,
      "inputs": [],
      "name": "lockTokenContract",
      "outputs": [
        {
          "name": "",
          "type": "bool"
        }
      ],
      "payable": false,
      "stateMutability": "view",
      "type": "function"
    },
    {
      "constant": false,
      "inputs": [
        {
          "name": "newOwner",
          "type": "address"
        }
      ],
      "name": "transferOwnership",
      "outputs": [],
      "payable": false,
      "stateMutability": "nonpayable",
      "type": "function"
    },
    {
      "constant": true,
      "inputs": [
        {
          "name": "",
          "type": "address"
        }
      ],
      "name": "pendingWithdrawals",
      "outputs": [
        {
          "name": "",
          "type": "uint256"
        }
      ],
      "payable": false,
      "stateMutability": "view",
      "type": "function"
    },
    {
      "constant": true,
      "inputs": [],
      "name": "hasTokenContract",
      "outputs": [
        {
          "name": "",
          "type": "bool"
        }
      ],
      "payable": false,
      "stateMutability": "view",
      "type": "function"
    },
    {
      "constant": true,
      "inputs": [],
      "name": "lockMarketContract",
      "outputs": [
        {
          "name": "",
          "type": "bool"
        }
      ],
      "payable": false,
      "stateMutability": "view",
      "type": "function"
    },
    {
      "anonymous": false,
      "inputs": [
        {
          "indexed": true,
          "name": "to",
          "type": "address"
        },
        {
          "indexed": false,
          "name": "typeId",
          "type": "uint256"
        },
        {
          "indexed": false,
          "name": "name",
          "type": "bytes32"
        },
        {
          "indexed": false,
          "name": "hashh",
          "type": "bytes32"
        }
      ],
      "name": "RegisterGood",
      "type": "event"
    },
    {
      "anonymous": false,
      "inputs": [
        {
          "indexed": true,
          "name": "from",
          "type": "address"
        },
        {
          "indexed": true,
          "name": "to",
          "type": "address"
        },
        {
          "indexed": false,
          "name": "typeId",
          "type": "uint256"
        }
      ],
      "name": "RegistrationTransfer",
      "type": "event"
    },
    {
      "anonymous": false,
      "inputs": [
        {
          "indexed": true,
          "name": "owner",
          "type": "address"
        },
        {
          "indexed": false,
          "name": "enabele",
          "type": "bool"
        },
        {
          "indexed": false,
          "name": "typeId",
          "type": "uint256"
        }
      ],
      "name": "ModifyClaimsEnable",
      "type": "event"
    },
    {
      "anonymous": false,
      "inputs": [
        {
          "indexed": true,
          "name": "owner",
          "type": "address"
        },
        {
          "indexed": false,
          "name": "price",
          "type": "uint256"
        },
        {
          "indexed": false,
          "name": "typeId",
          "type": "uint256"
        }
      ],
      "name": "ModifyClaimsPrice",
      "type": "event"
    },
    {
      "anonymous": false,
      "inputs": [
        {
          "indexed": true,
          "name": "owner",
          "type": "address"
        },
        {
          "indexed": false,
          "name": "description",
          "type": "string"
        },
        {
          "indexed": false,
          "name": "typeId",
          "type": "uint256"
        }
      ],
      "name": "ModifyGoodTypeDescription",
      "type": "event"
    },
    {
      "anonymous": false,
      "inputs": [
        {
          "indexed": true,
          "name": "to",
          "type": "address"
        },
        {
          "indexed": false,
          "name": "goodHash",
          "type": "uint256"
        },
        {
          "indexed": false,
          "name": "supplyIndex",
          "type": "uint256"
        }
      ],
      "name": "ClaimGood",
      "type": "event"
    },
    {
      "anonymous": false,
      "inputs": [
        {
          "indexed": true,
          "name": "previousOwner",
          "type": "address"
        },
        {
          "indexed": true,
          "name": "newOwner",
          "type": "address"
        }
      ],
      "name": "OwnershipTransferred",
      "type": "event"
    }
  ],
  "bytecode": "0x60606040526040805190810160405280600a81526020017f4574686572476f6f647300000000000000000000000000000000000000000000815250600190805190602001906200005192919062000103565b506000600360006101000a81548160ff0219169083151502179055506000600360016101000a81548160ff0219169083151502179055506000600360026101000a81548160ff02191690831515021790555060006003806101000a81548160ff021916908315150217905550336000806101000a81548173ffffffffffffffffffffffffffffffffffffffff021916908373ffffffffffffffffffffffffffffffffffffffff160217905550620001b2565b828054600181600116156101000203166002900490600052602060002090601f016020900481019282601f106200014657805160ff191683800117855562000177565b8280016001018555821562000177579182015b828111156200017657825182559160200191906001019062000159565b5b5090506200018691906200018a565b5090565b620001af91905b80821115620001ab57600081600090555060010162000191565b5090565b90565b6121f980620001c26000396000f30060606040526004361061016a576000357c0100000000000000000000000000000000000000000000000000000000900463ffffffff16806303a2b3bf1461016f57806306fdde03146101875780630bd42e3e1461021557806316cc29ff14610243578063220c73041461024d578063244814ba1461037a5780632702182b14610392578063322fe49e146103e757806334829bf414610420578063395647cc146104355780633dd8d5a51461043f5780634db7bd8e1461046b57806354fd4d50146104d157806369c41a791461055f57806369cdbd5a146105745780637c80a8fe146105a157806388691f17146105b65780638a53f242146105ce5780638da5cb5b1461061057806391341ef414610665578063a55acd0b1461067d578063b23d4854146106d2578063c73358de1461070b578063e88770dc14610744578063f2fde38b14610771578063f3f43703146107aa578063f61b6832146107f7578063f935ca0114610824575b600080fd5b6101856004808035906020019091905050610851565b005b341561019257600080fd5b61019a6108e9565b6040518080602001828103825283818151815260200191508051906020019080838360005b838110156101da5780820151818401526020810190506101bf565b50505050905090810190601f1680156102075780820380516001836020036101000a031916815260200191505b509250505060405180910390f35b341561022057600080fd5b61024160048080351515906020019091908035906020019091905050610987565b005b61024b610ab2565b005b341561025857600080fd5b61026e6004808035906020019091905050610ac2565b604051808a81526020018973ffffffffffffffffffffffffffffffffffffffff1673ffffffffffffffffffffffffffffffffffffffff16815260200188815260200187815260200186815260200185600019166000191681526020018060200184151515158152602001831515151581526020018281038252858181546001816001161561010002031660029004815260200191508054600181600116156101000203166002900480156103635780601f1061033857610100808354040283529160200191610363565b820191906000526020600020905b81548152906001019060200180831161034657829003601f168201915b50509a505050505050505050505060405180910390f35b6103906004808035906020019091905050610b49565b005b341561039d57600080fd5b6103a561102d565b604051808273ffffffffffffffffffffffffffffffffffffffff1673ffffffffffffffffffffffffffffffffffffffff16815260200191505060405180910390f35b34156103f257600080fd5b61041e600480803560001916906020019091908035906020019091908035906020019091905050611053565b005b341561042b57600080fd5b6104336112b9565b005b61043d611394565b005b341561044a57600080fd5b610469600480803590602001909190803590602001909190505061146e565b005b341561047657600080fd5b6104cf600480803590602001908201803590602001908080601f01602080910402602001604051908101604052809392919081815260200183838082843782019150505050505091908035906020019091905050611590565b005b34156104dc57600080fd5b6104e4611719565b6040518080602001828103825283818151815260200191508051906020019080838360005b83811015610524578082015181840152602081019050610509565b50505050905090810190601f1680156105515780820380516001836020036101000a031916815260200191505b509250505060405180910390f35b341561056a57600080fd5b6105726117b7565b005b341561057f57600080fd5b610587611849565b604051808215151515815260200191505060405180910390f35b34156105ac57600080fd5b6105b461185c565b005b6105cc60048080359060200190919050506118ef565b005b34156105d957600080fd5b61060e600480803573ffffffffffffffffffffffffffffffffffffffff169060200190919080359060200190919050506119dc565b005b341561061b57600080fd5b610623611b39565b604051808273ffffffffffffffffffffffffffffffffffffffff1673ffffffffffffffffffffffffffffffffffffffff16815260200191505060405180910390f35b61067b6004808035906020019091905050611b5e565b005b341561068857600080fd5b610690611d11565b604051808273ffffffffffffffffffffffffffffffffffffffff1673ffffffffffffffffffffffffffffffffffffffff16815260200191505060405180910390f35b34156106dd57600080fd5b610709600480803573ffffffffffffffffffffffffffffffffffffffff16906020019091905050611d37565b005b341561071657600080fd5b610742600480803573ffffffffffffffffffffffffffffffffffffffff16906020019091905050611e11565b005b341561074f57600080fd5b610757611eea565b604051808215151515815260200191505060405180910390f35b341561077c57600080fd5b6107a8600480803573ffffffffffffffffffffffffffffffffffffffff16906020019091905050611efd565b005b34156107b557600080fd5b6107e1600480803573ffffffffffffffffffffffffffffffffffffffff16906020019091905050612052565b6040518082815260200191505060405180910390f35b341561080257600080fd5b61080a61206a565b604051808215151515815260200191505060405180910390f35b341561082f57600080fd5b61083761207d565b604051808215151515815260200191505060405180910390f35b60006005600083815260200190815260200160002060030154905060056000838152602001908152602001600020600301600081548092919060010191905055506005600083815260200190815260200160002060070160009054906101000a900460ff1615156108c157600080fd5b6005600083815260200190815260200160002060020154811015156108e557600080fd5b5050565b60018054600181600116156101000203166002900480601f01602080910402602001604051908101604052809291908181526020018280546001816001161561010002031660029004801561097f5780601f106109545761010080835404028352916020019161097f565b820191906000526020600020905b81548152906001019060200180831161096257829003601f168201915b505050505081565b6005600082815260200190815260200160002060070160009054906101000a900460ff1615156109b657600080fd5b3373ffffffffffffffffffffffffffffffffffffffff166005600083815260200190815260200160002060010160009054906101000a900473ffffffffffffffffffffffffffffffffffffffff1673ffffffffffffffffffffffffffffffffffffffff16141515610a2657600080fd5b816005600083815260200190815260200160002060070160016101000a81548160ff0219169083151502179055503373ffffffffffffffffffffffffffffffffffffffff167f7897f6ee6e11a2f27cccc9ae272b8c9875098853088c9f8a5b9f32fc0776927e838360405180831515151581526020018281526020019250505060405180910390a25050565b6000341015610ac057600080fd5b565b60056020528060005260406000206000915090508060000154908060010160009054906101000a900473ffffffffffffffffffffffffffffffffffffffff169080600201549080600301549080600401549080600501549080600601908060070160009054906101000a900460ff16908060070160019054906101000a900460ff16905089565b6000806005600084815260200190815260200160002060030154915060056000848152602001908152602001600020600301600081548092919060010191905055506005600084815260200190815260200160002060070160009054906101000a900460ff161515610bba57600080fd5b600560008481526020019081526020016000206002015482101515610bde57600080fd5b6005600084815260200190815260200160002060040154341015610c0157600080fd5b600060056000858152602001908152602001600020600401541015610c2557600080fd5b6000341015610c3357600080fd5b600360049054906101000a900473ffffffffffffffffffffffffffffffffffffffff1673ffffffffffffffffffffffffffffffffffffffff1663579394f284846000604051602001526040518363ffffffff167c01000000000000000000000000000000000000000000000000000000000281526004018083815260200182815260200192505050602060405180830381600087803b1515610cd457600080fd5b6102c65a03f11515610ce557600080fd5b5050506040518051905015610cf957600080fd5b829050600360049054906101000a900473ffffffffffffffffffffffffffffffffffffffff1673ffffffffffffffffffffffffffffffffffffffff1663ce26eceb33600360049054906101000a900473ffffffffffffffffffffffffffffffffffffffff1673ffffffffffffffffffffffffffffffffffffffff166326b4768787876000604051602001526040518363ffffffff167c01000000000000000000000000000000000000000000000000000000000281526004018083815260200182815260200192505050602060405180830381600087803b1515610ddc57600080fd5b6102c65a03f11515610ded57600080fd5b50505060405180519050846040518463ffffffff167c0100000000000000000000000000000000000000000000000000000000028152600401808473ffffffffffffffffffffffffffffffffffffffff1673ffffffffffffffffffffffffffffffffffffffff1681526020018381526020018281526020019350505050600060405180830381600087803b1515610e8357600080fd5b6102c65a03f11515610e9457600080fd5b5050506005600084815260200190815260200160002060040154600660006005600087815260200190815260200160002060010160009054906101000a900473ffffffffffffffffffffffffffffffffffffffff1673ffffffffffffffffffffffffffffffffffffffff1673ffffffffffffffffffffffffffffffffffffffff16815260200190815260200160002060008282540192505081905550610f5034600560008681526020019081526020016000206004015461208f565b600660006005600087815260200190815260200160002060010160009054906101000a900473ffffffffffffffffffffffffffffffffffffffff1673ffffffffffffffffffffffffffffffffffffffff1673ffffffffffffffffffffffffffffffffffffffff168152602001908152602001600020600082825401925050819055503373ffffffffffffffffffffffffffffffffffffffff167f0345c0bf4a4dc363b2a234f103af0f1063583de82abdc90af991d3e03e0fa8df8484604051808381526020018281526020019250505060405180910390a2505050565b600360049054906101000a900473ffffffffffffffffffffffffffffffffffffffff1681565b6000836040518082600019166000191681526020019150506040518091039020600190049050600183101561108757600080fd5b600082101561109557600080fd5b6005600082815260200190815260200160002060070160009054906101000a900460ff16156110c357600080fd5b610120604051908101604052808281526020013373ffffffffffffffffffffffffffffffffffffffff16815260200184815260200160008152602001838152602001856000191681526020016020604051908101604052806000815250815260200160011515815260200160011515815250600560008381526020019081526020016000206000820151816000015560208201518160010160006101000a81548173ffffffffffffffffffffffffffffffffffffffff021916908373ffffffffffffffffffffffffffffffffffffffff16021790555060408201518160020155606082015181600301556080820151816004015560a0820151816005019060001916905560c08201518160060190805190602001906111e39291906120a8565b5060e08201518160070160006101000a81548160ff0219169083151502179055506101008201518160070160016101000a81548160ff0219169083151502179055509050503373ffffffffffffffffffffffffffffffffffffffff167f9b5b24bed08ede0f386e078922d2a8d868c4dd018112d38f60930fb5ff1dcd9182868760405180826000191660001916815260200191505060405180910390206040518084815260200183600019166000191681526020018260001916600019168152602001935050505060405180910390a250505050565b6000600660003373ffffffffffffffffffffffffffffffffffffffff1673ffffffffffffffffffffffffffffffffffffffff1681526020019081526020016000205490506000600660003373ffffffffffffffffffffffffffffffffffffffff1673ffffffffffffffffffffffffffffffffffffffff1681526020019081526020016000208190555060008111151561135157600080fd5b3373ffffffffffffffffffffffffffffffffffffffff166108fc829081150290604051600060405180830381858888f19350505050151561139157600080fd5b50565b336000806101000a81548173ffffffffffffffffffffffffffffffffffffffff021916908373ffffffffffffffffffffffffffffffffffffffff1602179055506040805190810160405280600a81526020017f4554484552474f4f4453000000000000000000000000000000000000000000008152506001908051906020019061141f929190612128565b506040805190810160405280600581526020017f302e322e320000000000000000000000000000000000000000000000000000008152506002908051906020019061146b929190612128565b50565b6005600082815260200190815260200160002060070160009054906101000a900460ff16151561149d57600080fd5b3373ffffffffffffffffffffffffffffffffffffffff166005600083815260200190815260200160002060010160009054906101000a900473ffffffffffffffffffffffffffffffffffffffff1673ffffffffffffffffffffffffffffffffffffffff1614151561150d57600080fd5b600082101561151b57600080fd5b8160056000838152602001908152602001600020600401819055503373ffffffffffffffffffffffffffffffffffffffff167f89bf93c4a09f6b0f22d2364102c2e8172e9aed3c3fa2148f3c5bb068642118bf8383604051808381526020018281526020019250505060405180910390a25050565b6005600082815260200190815260200160002060070160009054906101000a900460ff1615156115bf57600080fd5b3373ffffffffffffffffffffffffffffffffffffffff166005600083815260200190815260200160002060010160009054906101000a900473ffffffffffffffffffffffffffffffffffffffff1673ffffffffffffffffffffffffffffffffffffffff1614151561162f57600080fd5b81600560008381526020019081526020016000206006019080519060200190611659929190612128565b503373ffffffffffffffffffffffffffffffffffffffff167f821e49ee6ff6ec305fc540c9705d981e443c6b58a8028b4936bada39a2f9ac0c83836040518080602001838152602001828103825284818151815260200191508051906020019080838360005b838110156116da5780820151818401526020810190506116bf565b50505050905090810190601f1680156117075780820380516001836020036101000a031916815260200191505b50935050505060405180910390a25050565b60028054600181600116156101000203166002900480601f0160208091040260200160405190810160405280929190818152602001828054600181600116156101000203166002900480156117af5780601f10611784576101008083540402835291602001916117af565b820191906000526020600020905b81548152906001019060200180831161179257829003601f168201915b505050505081565b6000809054906101000a900473ffffffffffffffffffffffffffffffffffffffff1673ffffffffffffffffffffffffffffffffffffffff163373ffffffffffffffffffffffffffffffffffffffff1614151561181257600080fd5b600360019054906101000a900460ff16151561182d57600080fd5b60016003806101000a81548160ff021916908315150217905550565b600360019054906101000a900460ff1681565b6000809054906101000a900473ffffffffffffffffffffffffffffffffffffffff1673ffffffffffffffffffffffffffffffffffffffff163373ffffffffffffffffffffffffffffffffffffffff161415156118b757600080fd5b600360009054906101000a900460ff1615156118d257600080fd5b6001600360026101000a81548160ff021916908315150217905550565b60006005600083815260200190815260200160002060030154905060056000838152602001908152602001600020600301600081548092919060010191905055506005600083815260200190815260200160002060070160009054906101000a900460ff16151561195f57600080fd5b60056000838152602001908152602001600020600201548110151561198357600080fd5b60056000838152602001908152602001600020600401543410156119a657600080fd5b6000600560008481526020019081526020016000206004015410156119ca57600080fd5b60003410156119d857600080fd5b5050565b6005600082815260200190815260200160002060070160009054906101000a900460ff161515611a0b57600080fd5b3373ffffffffffffffffffffffffffffffffffffffff166005600083815260200190815260200160002060010160009054906101000a900473ffffffffffffffffffffffffffffffffffffffff1673ffffffffffffffffffffffffffffffffffffffff16141515611a7b57600080fd5b816005600083815260200190815260200160002060010160006101000a81548173ffffffffffffffffffffffffffffffffffffffff021916908373ffffffffffffffffffffffffffffffffffffffff1602179055508173ffffffffffffffffffffffffffffffffffffffff163373ffffffffffffffffffffffffffffffffffffffff167fa545c3ed08273100efe722a6b2e8e9308c478b06c70101f90931d4db301f6971836040518082815260200191505060405180910390a35050565b6000809054906101000a900473ffffffffffffffffffffffffffffffffffffffff1681565b60006005600083815260200190815260200160002060030154905060056000838152602001908152602001600020600301600081548092919060010191905055506005600083815260200190815260200160002060070160009054906101000a900460ff161515611bce57600080fd5b600560008381526020019081526020016000206002015481101515611bf257600080fd5b6005600083815260200190815260200160002060040154341015611c1557600080fd5b600060056000848152602001908152602001600020600401541015611c3957600080fd5b6000341015611c4757600080fd5b600360049054906101000a900473ffffffffffffffffffffffffffffffffffffffff1673ffffffffffffffffffffffffffffffffffffffff1663579394f283836000604051602001526040518363ffffffff167c01000000000000000000000000000000000000000000000000000000000281526004018083815260200182815260200192505050602060405180830381600087803b1515611ce857600080fd5b6102c65a03f11515611cf957600080fd5b5050506040518051905015611d0d57600080fd5b5050565b600460009054906101000a900473ffffffffffffffffffffffffffffffffffffffff1681565b60008060009054906101000a900473ffffffffffffffffffffffffffffffffffffffff1673ffffffffffffffffffffffffffffffffffffffff163373ffffffffffffffffffffffffffffffffffffffff16141515611d9457600080fd5b600360029054906101000a900460ff1615611dae57600080fd5b81905080600360046101000a81548173ffffffffffffffffffffffffffffffffffffffff021916908373ffffffffffffffffffffffffffffffffffffffff1602179055506001600360006101000a81548160ff0219169083151502179055505050565b60008060009054906101000a900473ffffffffffffffffffffffffffffffffffffffff1673ffffffffffffffffffffffffffffffffffffffff163373ffffffffffffffffffffffffffffffffffffffff16141515611e6e57600080fd5b6003809054906101000a900460ff1615611e8757600080fd5b81905080600460006101000a81548173ffffffffffffffffffffffffffffffffffffffff021916908373ffffffffffffffffffffffffffffffffffffffff1602179055506001600360016101000a81548160ff0219169083151502179055505050565b600360029054906101000a900460ff1681565b6000809054906101000a900473ffffffffffffffffffffffffffffffffffffffff1673ffffffffffffffffffffffffffffffffffffffff163373ffffffffffffffffffffffffffffffffffffffff16141515611f5857600080fd5b600073ffffffffffffffffffffffffffffffffffffffff168173ffffffffffffffffffffffffffffffffffffffff1614151515611f9457600080fd5b8073ffffffffffffffffffffffffffffffffffffffff166000809054906101000a900473ffffffffffffffffffffffffffffffffffffffff1673ffffffffffffffffffffffffffffffffffffffff167f8be0079c531659141344cd1fd0a4f28419497f9722a3daafe3b4186f6b6457e060405160405180910390a3806000806101000a81548173ffffffffffffffffffffffffffffffffffffffff021916908373ffffffffffffffffffffffffffffffffffffffff16021790555050565b60066020528060005260406000206000915090505481565b600360009054906101000a900460ff1681565b6003809054906101000a900460ff1681565b600082821115151561209d57fe5b818303905092915050565b828054600181600116156101000203166002900490600052602060002090601f016020900481019282601f106120e957805160ff1916838001178555612117565b82800160010185558215612117579182015b828111156121165782518255916020019190600101906120fb565b5b50905061212491906121a8565b5090565b828054600181600116156101000203166002900490600052602060002090601f016020900481019282601f1061216957805160ff1916838001178555612197565b82800160010185558215612197579182015b8281111561219657825182559160200191906001019061217b565b5b5090506121a491906121a8565b5090565b6121ca91905b808211156121c65760008160009055506001016121ae565b5090565b905600a165627a7a72305820ed84966380044420a318978f68c65285690f68c2bc1ce1e4e9bcefc4fe4843b10029",
  "source": "pragma solidity ^0.4.8;\n\n\nimport './GoodToken.sol';  //NFT\nimport './BasicNFTTokenMarket.sol';\n// see https://github.com/OpenZeppelin/zeppelin-solidity/tree/master/contracts\n\n// see https://github.com/decentraland/land/tree/master/contracts\n\n\ncontract EtherGoods is Ownable {\n\n    //address public owner;\n\n  //  string public standard = 'EtherGoods';\n    string public name = 'EtherGoods';\n    string public version;\n\n    bool public hasTokenContract = false;\n    bool public hasMarketContract = false;\n\n    bool public lockTokenContract = false;\n    bool public lockMarketContract = false;\n\n\n    // GOODToken contract that holds the registry of good instances\n    GoodToken public goods;\n\n    //allows users to buy and sell the NFT tokens\n    BasicNFTTokenMarket public goodTokenMarket;\n  //  goodTokenMarket.setTokenContract(goods);\n\n\n    //blueprint for a good\n    struct GoodType {\n       uint256 typeId; //the id of the asset blueprint\n       address creator;\n       uint256 totalSupply;\n       uint256 nextSupplyIndexToSell;\n       uint256 claimPrice; // can be changed by owner\n       bytes32  name;\n       string description;\n       bool initialized;\n       bool claimsEnabled; // can be changed by owner\n   }\n\n\n\n    mapping (uint256 => GoodType) public goodTypes;\n\n\n    // https://github.com/ethereum/eips/issues/721\n    //mapping (bytes32 => Good) goods;\n\n\n\n\n    mapping (address => uint) public pendingWithdrawals;\n\n\t\tevent RegisterGood(address indexed to, uint256 typeId, bytes32 name, bytes32 hashh);\n\t\tevent RegistrationTransfer(address indexed from, address indexed to, uint256 typeId);\n\t\tevent ModifyClaimsEnable(address indexed owner,bool enabele,uint256 typeId);\n    event ModifyClaimsPrice(address indexed owner,uint price,uint256 typeId);\n    event ModifyGoodTypeDescription(address indexed owner,string description,uint256 typeId);\n\n\n    event ClaimGood(address indexed to, uint256 goodHash, uint256 supplyIndex);\n\t//cant index enough !\n\n\n    /* Initializes contract with initial supply tokens to the creator of the contract */\n    function EthergoodsMarket() public payable {\n        owner = msg.sender;\n        name = \"ETHERGOODS\";                                 // Set the name for display purposes\n        version = \"0.2.2\";\n    }\n\n\n\n    function setTokenContractAddress(address _address) external onlyOwner {\n        if(lockTokenContract) revert();\n        GoodToken goodTokenContract = GoodToken(_address);\n        // Set the new contract address\n        goods = goodTokenContract;\n        hasTokenContract = true;\n    }\n\n    function lockTokenContractAddress() external onlyOwner {\n        if(!hasTokenContract) revert();\n        lockTokenContract = true;\n    }\n\n    function setMarketContractAddress(address _address) external onlyOwner {\n        if(lockMarketContract) revert();\n        BasicNFTTokenMarket basicMarketContract = BasicNFTTokenMarket(_address);\n        // Set the new contract address\n        goodTokenMarket = basicMarketContract;\n        hasMarketContract = true;\n    }\n\n\n    function lockMarketContractAddress() external onlyOwner {\n        if(!hasMarketContract) revert();\n        lockMarketContract = true;\n    }\n\n    //costs 20K gas to store a peice of data\n\n\t\tfunction registerNewGoodType( bytes32  goodTypeName,   uint256 totalSupply, uint256 claimPrice ) public\n\t\t{\n      //if( (goodTypeName).length > 32) revert();\n      uint256 typeId = uint256(keccak256( goodTypeName ));\n      if(totalSupply < 1) revert();\n\t\t\tif(claimPrice < 0) revert();\n\t\t\t//make sure the goodtype doesnt exist\n\n      //disallow timing attack\n      if(goodTypes[typeId].initialized) revert();\n\n      goodTypes[typeId] = GoodType({\n         initialized:true,\n         creator:msg.sender,\n         typeId: typeId,\n         name: goodTypeName,\n         totalSupply: totalSupply,\n         nextSupplyIndexToSell: 0,\n         claimPrice: claimPrice,\n         claimsEnabled: true,\n         description: \"\"\n        });\n\n\n\t\t\tRegisterGood(msg.sender,typeId,goodTypeName,keccak256( goodTypeName ));\n\t\t}\n\n  /*  function stringToBytes32(string memory source) public returns (bytes32 result)  {\n        assembly {\n            result := mload(add(source, 32))\n        }\n    }*/\n\n    function setGoodTypeDescription(string description, uint256 typeId) public\n\t\t{\n\t\t\t\tif(!goodTypes[typeId].initialized) revert();\n\t\t\t\tif (goodTypes[typeId].creator != msg.sender) revert(); //must own the registration to transfer it\n\n\t\t\t\tgoodTypes[typeId].description = description;\n\n\t\t\t\tModifyGoodTypeDescription(msg.sender,description,typeId);\n\n\t\t}\n\n\t\t//modifying existing goods registrations\n\t\tfunction setClaimsEnabled(bool enabled, uint256 typeId) public\n\t\t{\n\t\t\t\tif(!goodTypes[typeId].initialized) revert();\n\t\t\t\tif (goodTypes[typeId].creator != msg.sender) revert(); //must own the registration to transfer it\n\n\t\t\t\tgoodTypes[typeId].claimsEnabled = enabled;\n\n\t\t\t\tModifyClaimsEnable(msg.sender,enabled,typeId);\n\n\t\t}\n\n\t\tfunction setClaimsPrice(uint256 claimPrice, uint256 typeId) public\n\t\t{\n\t\t\t\tif(!goodTypes[typeId].initialized) revert();\n\t\t\t\tif(goodTypes[typeId].creator != msg.sender) revert(); //must own the registration to transfer it\n        if(claimPrice < 0) revert();\n\n\t\t\t\tgoodTypes[typeId].claimPrice = claimPrice;\n\n\t\t\t\tModifyClaimsPrice(msg.sender,claimPrice,typeId);\n\n\t\t}\n\n\t\tfunction transferRegistration(address to, uint256 typeId) public\n\t\t{\n\t\t\t\tif(!goodTypes[typeId].initialized) revert();\n\t\t\t\tif(goodTypes[typeId].creator != msg.sender) revert(); //must own the registration to transfer it\n\n\t\t\t\tgoodTypes[typeId].creator = to;\n\n\t\t\t\tRegistrationTransfer(msg.sender,to,typeId);\n\n\t\t}\n\n/*\n  I am not putting the right typeId in this function !!!\n  It should be a big number like 738237273283817...\n*/\n\n\nfunction claimGoodTestA( ) public payable\n{\n  if (msg.value < 0) revert();\n}\n\n\n\nfunction claimGoodTestB(uint256 typeId) public payable\n{\n//  GoodType memory goodType = goodTypes[typeId];// this is a pointer reference\n\n  uint256 instanceId = goodTypes[typeId].nextSupplyIndexToSell;\n\n    //prevent timing attack\n  goodTypes[typeId].nextSupplyIndexToSell++;\n  if(!goodTypes[typeId].initialized) revert(); //if the good isnt registered\n  if(instanceId >= goodTypes[typeId].totalSupply) revert(); // the good is all claimed\n\n}\nfunction claimGoodTestC(uint256 typeId) public payable\n{\n\n\n  uint256 instanceId = goodTypes[typeId].nextSupplyIndexToSell;\n\n    //prevent timing attack\n  goodTypes[typeId].nextSupplyIndexToSell++;\n  if(!goodTypes[typeId].initialized) revert(); //if the good isnt registered\n  if(instanceId >= goodTypes[typeId].totalSupply) revert(); // the good is all claimed\n\n  if (msg.value < goodTypes[typeId].claimPrice) revert();\n  if (goodTypes[typeId].claimPrice < 0) revert();\n  if (msg.value < 0) revert();\n\n}\nfunction claimGoodTestD(uint256 typeId) public payable\n{\n // this is a pointer reference\n\n  uint256 instanceId = goodTypes[typeId].nextSupplyIndexToSell;\n\n    //prevent timing attack\n  goodTypes[typeId].nextSupplyIndexToSell++;\n  if(!goodTypes[typeId].initialized) revert(); //if the good isnt registered\n  if(instanceId >= goodTypes[typeId].totalSupply) revert(); // the good is all claimed\n\n  if (msg.value < goodTypes[typeId].claimPrice) revert();\n  if (goodTypes[typeId].claimPrice < 0) revert();\n  if (msg.value < 0) revert();\n\n    if (goods.exists(typeId, instanceId)) revert();\n}\n\n       //uniqueHash =typeId\n\t\tfunction claimGood(uint256 typeId) public payable\n\t\t{\n    //  GoodType memory goodType = goodTypes[typeId];// this is a pointer reference\n\n      uint256 instanceId = goodTypes[typeId].nextSupplyIndexToSell;\n\n        //prevent timing attack\n      goodTypes[typeId].nextSupplyIndexToSell++;\n\t\t\tif(!goodTypes[typeId].initialized) revert(); //if the good isnt registered\n\t\t\tif(instanceId >= goodTypes[typeId].totalSupply) revert(); // the good is all claimed\n\n      if (msg.value < goodTypes[typeId].claimPrice) revert();\n      if (goodTypes[typeId].claimPrice < 0) revert();\n      if (msg.value < 0) revert();\n      if (goods.exists(typeId, instanceId)) revert();\n\n      //uint256 instanceId = goodType.nextSupplyIndexToSell;\n\n\n      uint256 metadata = typeId;\n\t    goods.claimGoodToken(msg.sender,goods.buildTokenId(typeId,instanceId),metadata);\n\n      //Content creator gets claim eth\n      pendingWithdrawals[goodTypes[typeId].creator] += goodTypes[typeId].claimPrice;\n\n      //refund overspends\n      pendingWithdrawals[goodTypes[typeId].creator] += safesub(msg.value, goodTypes[typeId].claimPrice);\n\n\n\t\t\tClaimGood(msg.sender, typeId, instanceId );\n\n\n\t\t}\n\n      function withdrawPendingBalance() public\n      {\n\n        uint256 amountToWithdraw = pendingWithdrawals[msg.sender];\n\n        //prevent re-entrancy\n        pendingWithdrawals[msg.sender] = 0;\n        if( amountToWithdraw <= 0 ) revert();\n\n        msg.sender.transfer( amountToWithdraw );\n\n      }\n\n      function safesub(uint256 a, uint256 b) internal pure returns (uint256) {\n        assert(b <= a);\n        return a - b;\n      }\n\n}\n",
  "sourcePath": "/home/andy/dev/ethergoods/contracts/EtherGoods.sol",
  "compiler": {
    "name": "solc",
    "version": "0.4.18+commit.9cf6e910.Emscripten.clang"
  },
  "schemaVersion": "1.0.1",
  "updatedAt": "2018-01-14T01:45:08.078Z"
}